{
  "_format": "hh-sol-artifact-1",
  "contractName": "DegenToken",
  "sourceName": "contracts/DegenToken.sol",
  "abi": [
    {
      "inputs": [],
      "stateMutability": "nonpayable",
      "type": "constructor"
    },
    {
      "anonymous": false,
      "inputs": [
        {
          "indexed": true,
          "internalType": "address",
          "name": "owner",
          "type": "address"
        },
        {
          "indexed": true,
          "internalType": "address",
          "name": "spender",
          "type": "address"
        },
        {
          "indexed": false,
          "internalType": "uint256",
          "name": "value",
          "type": "uint256"
        }
      ],
      "name": "Approval",
      "type": "event"
    },
    {
      "anonymous": false,
      "inputs": [
        {
          "indexed": true,
          "internalType": "address",
          "name": "previousOwner",
          "type": "address"
        },
        {
          "indexed": true,
          "internalType": "address",
          "name": "newOwner",
          "type": "address"
        }
      ],
      "name": "OwnershipTransferred",
      "type": "event"
    },
    {
      "anonymous": false,
      "inputs": [
        {
          "indexed": true,
          "internalType": "address",
          "name": "from",
          "type": "address"
        },
        {
          "indexed": true,
          "internalType": "address",
          "name": "to",
          "type": "address"
        },
        {
          "indexed": false,
          "internalType": "uint256",
          "name": "value",
          "type": "uint256"
        }
      ],
      "name": "Transfer",
      "type": "event"
    },
    {
      "inputs": [
        {
          "internalType": "string",
          "name": "name",
          "type": "string"
        },
        {
          "internalType": "uint256",
          "name": "price",
          "type": "uint256"
        }
      ],
      "name": "addClothingItem",
      "outputs": [],
      "stateMutability": "nonpayable",
      "type": "function"
    },
    {
      "inputs": [
        {
          "internalType": "address",
          "name": "owner",
          "type": "address"
        },
        {
          "internalType": "address",
          "name": "spender",
          "type": "address"
        }
      ],
      "name": "allowance",
      "outputs": [
        {
          "internalType": "uint256",
          "name": "",
          "type": "uint256"
        }
      ],
      "stateMutability": "view",
      "type": "function"
    },
    {
      "inputs": [
        {
          "internalType": "address",
          "name": "spender",
          "type": "address"
        },
        {
          "internalType": "uint256",
          "name": "amount",
          "type": "uint256"
        }
      ],
      "name": "approve",
      "outputs": [
        {
          "internalType": "bool",
          "name": "",
          "type": "bool"
        }
      ],
      "stateMutability": "nonpayable",
      "type": "function"
    },
    {
      "inputs": [
        {
          "internalType": "address",
          "name": "account",
          "type": "address"
        }
      ],
      "name": "balanceOf",
      "outputs": [
        {
          "internalType": "uint256",
          "name": "",
          "type": "uint256"
        }
      ],
      "stateMutability": "view",
      "type": "function"
    },
    {
      "inputs": [
        {
          "internalType": "uint256",
          "name": "amount",
          "type": "uint256"
        }
      ],
      "name": "burn",
      "outputs": [],
      "stateMutability": "nonpayable",
      "type": "function"
    },
    {
      "inputs": [
        {
          "internalType": "address",
          "name": "account",
          "type": "address"
        },
        {
          "internalType": "uint256",
          "name": "amount",
          "type": "uint256"
        }
      ],
      "name": "burnFrom",
      "outputs": [],
      "stateMutability": "nonpayable",
      "type": "function"
    },
    {
      "inputs": [
        {
          "internalType": "uint256",
          "name": "value",
          "type": "uint256"
        }
      ],
      "name": "burnTokens",
      "outputs": [],
      "stateMutability": "nonpayable",
      "type": "function"
    },
    {
      "inputs": [
        {
          "internalType": "uint256",
          "name": "itemId",
          "type": "uint256"
        },
        {
          "internalType": "uint256",
          "name": "quantity",
          "type": "uint256"
        }
      ],
      "name": "buyClothingItem",
      "outputs": [],
      "stateMutability": "nonpayable",
      "type": "function"
    },
    {
      "inputs": [
        {
          "internalType": "uint256",
          "name": "",
          "type": "uint256"
        }
      ],
      "name": "clothingItems",
      "outputs": [
        {
          "internalType": "string",
          "name": "name",
          "type": "string"
        },
        {
          "internalType": "uint256",
          "name": "price",
          "type": "uint256"
        },
        {
          "internalType": "bool",
          "name": "available",
          "type": "bool"
        }
      ],
      "stateMutability": "view",
      "type": "function"
    },
    {
      "inputs": [],
      "name": "decimals",
      "outputs": [
        {
          "internalType": "uint8",
          "name": "",
          "type": "uint8"
        }
      ],
      "stateMutability": "pure",
      "type": "function"
    },
    {
      "inputs": [
        {
          "internalType": "address",
          "name": "spender",
          "type": "address"
        },
        {
          "internalType": "uint256",
          "name": "subtractedValue",
          "type": "uint256"
        }
      ],
      "name": "decreaseAllowance",
      "outputs": [
        {
          "internalType": "bool",
          "name": "",
          "type": "bool"
        }
      ],
      "stateMutability": "nonpayable",
      "type": "function"
    },
    {
      "inputs": [],
      "name": "getBalance",
      "outputs": [
        {
          "internalType": "uint256",
          "name": "",
          "type": "uint256"
        }
      ],
      "stateMutability": "view",
      "type": "function"
    },
    {
      "inputs": [
        {
          "internalType": "uint256",
          "name": "itemId",
          "type": "uint256"
        }
      ],
      "name": "getClothingItem",
      "outputs": [
        {
          "internalType": "string",
          "name": "",
          "type": "string"
        },
        {
          "internalType": "uint256",
          "name": "",
          "type": "uint256"
        },
        {
          "internalType": "bool",
          "name": "",
          "type": "bool"
        }
      ],
      "stateMutability": "view",
      "type": "function"
    },
    {
      "inputs": [
        {
          "internalType": "address",
          "name": "user",
          "type": "address"
        },
        {
          "internalType": "uint256",
          "name": "itemId",
          "type": "uint256"
        }
      ],
      "name": "getUserClothingBalance",
      "outputs": [
        {
          "internalType": "uint256",
          "name": "",
          "type": "uint256"
        }
      ],
      "stateMutability": "view",
      "type": "function"
    },
    {
      "inputs": [
        {
          "internalType": "address",
          "name": "spender",
          "type": "address"
        },
        {
          "internalType": "uint256",
          "name": "addedValue",
          "type": "uint256"
        }
      ],
      "name": "increaseAllowance",
      "outputs": [
        {
          "internalType": "bool",
          "name": "",
          "type": "bool"
        }
      ],
      "stateMutability": "nonpayable",
      "type": "function"
    },
    {
      "inputs": [
        {
          "internalType": "address",
          "name": "to",
          "type": "address"
        },
        {
          "internalType": "uint256",
          "name": "amount",
          "type": "uint256"
        }
      ],
      "name": "mint",
      "outputs": [],
      "stateMutability": "nonpayable",
      "type": "function"
    },
    {
      "inputs": [],
      "name": "name",
      "outputs": [
        {
          "internalType": "string",
          "name": "",
          "type": "string"
        }
      ],
      "stateMutability": "view",
      "type": "function"
    },
    {
      "inputs": [],
      "name": "owner",
      "outputs": [
        {
          "internalType": "address",
          "name": "",
          "type": "address"
        }
      ],
      "stateMutability": "view",
      "type": "function"
    },
    {
      "inputs": [
        {
          "internalType": "uint256",
          "name": "itemId",
          "type": "uint256"
        },
        {
          "internalType": "uint256",
          "name": "quantity",
          "type": "uint256"
        }
      ],
      "name": "redeemClothingItem",
      "outputs": [],
      "stateMutability": "nonpayable",
      "type": "function"
    },
    {
      "inputs": [],
      "name": "renounceOwnership",
      "outputs": [],
      "stateMutability": "nonpayable",
      "type": "function"
    },
    {
      "inputs": [
        {
          "internalType": "uint256",
          "name": "itemId",
          "type": "uint256"
        },
        {
          "internalType": "bool",
          "name": "available",
          "type": "bool"
        }
      ],
      "name": "setClothingItemAvailability",
      "outputs": [],
      "stateMutability": "nonpayable",
      "type": "function"
    },
    {
      "inputs": [],
      "name": "symbol",
      "outputs": [
        {
          "internalType": "string",
          "name": "",
          "type": "string"
        }
      ],
      "stateMutability": "view",
      "type": "function"
    },
    {
      "inputs": [],
      "name": "totalSupply",
      "outputs": [
        {
          "internalType": "uint256",
          "name": "",
          "type": "uint256"
        }
      ],
      "stateMutability": "view",
      "type": "function"
    },
    {
      "inputs": [
        {
          "internalType": "address",
          "name": "to",
          "type": "address"
        },
        {
          "internalType": "uint256",
          "name": "amount",
          "type": "uint256"
        }
      ],
      "name": "transfer",
      "outputs": [
        {
          "internalType": "bool",
          "name": "",
          "type": "bool"
        }
      ],
      "stateMutability": "nonpayable",
      "type": "function"
    },
    {
      "inputs": [
        {
          "internalType": "address",
          "name": "from",
          "type": "address"
        },
        {
          "internalType": "address",
          "name": "to",
          "type": "address"
        },
        {
          "internalType": "uint256",
          "name": "amount",
          "type": "uint256"
        }
      ],
      "name": "transferFrom",
      "outputs": [
        {
          "internalType": "bool",
          "name": "",
          "type": "bool"
        }
      ],
      "stateMutability": "nonpayable",
      "type": "function"
    },
    {
      "inputs": [
        {
          "internalType": "address",
          "name": "newOwner",
          "type": "address"
        }
      ],
      "name": "transferOwnership",
      "outputs": [],
      "stateMutability": "nonpayable",
      "type": "function"
    },
    {
      "inputs": [
        {
          "internalType": "address",
          "name": "receiver",
          "type": "address"
        },
        {
          "internalType": "uint256",
          "name": "value",
          "type": "uint256"
        }
      ],
      "name": "transferTokens",
      "outputs": [],
      "stateMutability": "nonpayable",
      "type": "function"
    },
    {
      "inputs": [
        {
          "internalType": "address",
          "name": "",
          "type": "address"
        },
        {
          "internalType": "uint256",
          "name": "",
          "type": "uint256"
        }
      ],
      "name": "userClothingBalances",
      "outputs": [
        {
          "internalType": "uint256",
          "name": "",
          "type": "uint256"
        }
      ],
      "stateMutability": "view",
      "type": "function"
    }
  ],
  "bytecode": "0x60806040523480156200001157600080fd5b506040518060400160405280600581526020017f446567656e0000000000000000000000000000000000000000000000000000008152506040518060400160405280600381526020017f44474e000000000000000000000000000000000000000000000000000000000081525081600390816200008f9190620006de565b508060049081620000a19190620006de565b505050620000c4620000b86200039160201b60201c565b6200039960201b60201c565b600660405180606001604052806040518060400160405280600b81526020017f5669727475616c2048617400000000000000000000000000000000000000000081525081526020016200011c6200045f60201b60201c565b600a6200012a919062000955565b6064620001389190620009a6565b81526020016001151581525090806001815401808255809150506001900390600052602060002090600302016000909190919091506000820151816000019081620001849190620006de565b506020820151816001015560408201518160020160006101000a81548160ff0219169083151502179055505050600660405180606001604052806040518060400160405280600d81526020017f5669727475616c205368697274000000000000000000000000000000000000008152508152602001620002096200045f60201b60201c565b600a62000217919062000955565b60c8620002259190620009a6565b81526020016001151581525090806001815401808255809150506001900390600052602060002090600302016000909190919091506000820151816000019081620002719190620006de565b506020820151816001015560408201518160020160006101000a81548160ff0219169083151502179055505050600660405180606001604052806040518060400160405280600d81526020017f5669727475616c2050616e7473000000000000000000000000000000000000008152508152602001620002f66200045f60201b60201c565b600a62000304919062000955565b6096620003129190620009a6565b815260200160011515815250908060018154018082558091505060019003906000526020600020906003020160009091909190915060008201518160000190816200035e9190620006de565b506020820151816001015560408201518160020160006101000a81548160ff0219169083151502179055505050620009f1565b600033905090565b6000600560009054906101000a900473ffffffffffffffffffffffffffffffffffffffff16905081600560006101000a81548173ffffffffffffffffffffffffffffffffffffffff021916908373ffffffffffffffffffffffffffffffffffffffff1602179055508173ffffffffffffffffffffffffffffffffffffffff168173ffffffffffffffffffffffffffffffffffffffff167f8be0079c531659141344cd1fd0a4f28419497f9722a3daafe3b4186f6b6457e060405160405180910390a35050565b600090565b600081519050919050565b7f4e487b7100000000000000000000000000000000000000000000000000000000600052604160045260246000fd5b7f4e487b7100000000000000000000000000000000000000000000000000000000600052602260045260246000fd5b60006002820490506001821680620004e657607f821691505b602082108103620004fc57620004fb6200049e565b5b50919050565b60008190508160005260206000209050919050565b60006020601f8301049050919050565b600082821b905092915050565b600060088302620005667fffffffffffffffffffffffffffffffffffffffffffffffffffffffffffffffff8262000527565b62000572868362000527565b95508019841693508086168417925050509392505050565b6000819050919050565b6000819050919050565b6000620005bf620005b9620005b3846200058a565b62000594565b6200058a565b9050919050565b6000819050919050565b620005db836200059e565b620005f3620005ea82620005c6565b84845462000534565b825550505050565b600090565b6200060a620005fb565b62000617818484620005d0565b505050565b5b818110156200063f576200063360008262000600565b6001810190506200061d565b5050565b601f8211156200068e57620006588162000502565b620006638462000517565b8101602085101562000673578190505b6200068b620006828562000517565b8301826200061c565b50505b505050565b600082821c905092915050565b6000620006b36000198460080262000693565b1980831691505092915050565b6000620006ce8383620006a0565b9150826002028217905092915050565b620006e98262000464565b67ffffffffffffffff8111156200070557620007046200046f565b5b620007118254620004cd565b6200071e82828562000643565b600060209050601f83116001811462000756576000841562000741578287015190505b6200074d8582620006c0565b865550620007bd565b601f198416620007668662000502565b60005b82811015620007905784890151825560018201915060208501945060208101905062000769565b86831015620007b05784890151620007ac601f891682620006a0565b8355505b6001600288020188555050505b505050505050565b7f4e487b7100000000000000000000000000000000000000000000000000000000600052601160045260246000fd5b60008160011c9050919050565b6000808291508390505b600185111562000853578086048111156200082b576200082a620007c5565b5b60018516156200083b5780820291505b80810290506200084b85620007f4565b94506200080b565b94509492505050565b6000826200086e576001905062000941565b816200087e576000905062000941565b8160018114620008975760028114620008a257620008d8565b600191505062000941565b60ff841115620008b757620008b6620007c5565b5b8360020a915084821115620008d157620008d0620007c5565b5b5062000941565b5060208310610133831016604e8410600b8410161715620009125782820a9050838111156200090c576200090b620007c5565b5b62000941565b62000921848484600162000801565b925090508184048111156200093b576200093a620007c5565b5b81810290505b9392505050565b600060ff82169050919050565b600062000962826200058a565b91506200096f8362000948565b92506200099e7fffffffffffffffffffffffffffffffffffffffffffffffffffffffffffffffff84846200085c565b905092915050565b6000620009b3826200058a565b9150620009c0836200058a565b9250828202620009d0816200058a565b91508282048414831517620009ea57620009e9620007c5565b5b5092915050565b612c1b8062000a016000396000f3fe608060405234801561001057600080fd5b50600436106101c45760003560e01c806344b4867a116100f95780638da5cb5b11610097578063a9059cbb11610071578063a9059cbb1461051b578063bec3fa171461054b578063dd62ed3e14610567578063f2fde38b14610597576101c4565b80638da5cb5b146104af57806395d89b41146104cd578063a457c2d7146104eb576101c4565b806370a08231116100d357806370a082311461043d578063715018a61461046d57806379cc67901461047757806380cf1c9214610493576101c4565b806344b4867a146103d35780634a886530146104055780636d1b229d14610421576101c4565b806330805c51116101665780633950935111610140578063395093511461033b57806340c10f191461036b57806341e7370d1461038757806342966c68146103b7576101c4565b806330805c51146102e5578063313ce5671461030157806333ac4f251461031f576101c4565b806312065fe0116101a257806312065fe01461024757806318160ddd146102655780631e9ef2f21461028357806323b872dd146102b5576101c4565b806306fdde03146101c9578063095ea7b3146101e75780630d909cd114610217575b600080fd5b6101d16105b3565b6040516101de9190611ad6565b60405180910390f35b61020160048036038101906101fc9190611ba0565b610645565b60405161020e9190611bfb565b60405180910390f35b610231600480360381019061022c9190611ba0565b610668565b60405161023e9190611c25565b60405180910390f35b61024f61068d565b60405161025c9190611c25565b60405180910390f35b61026d61069d565b60405161027a9190611c25565b60405180910390f35b61029d60048036038101906102989190611c40565b6106a7565b6040516102ac93929190611c6d565b60405180910390f35b6102cf60048036038101906102ca9190611cab565b6107b1565b6040516102dc9190611bfb565b60405180910390f35b6102ff60048036038101906102fa9190611d2a565b6107e0565b005b610309610829565b6040516103169190611d86565b60405180910390f35b61033960048036038101906103349190611ed6565b61082e565b005b61035560048036038101906103509190611ba0565b6108c5565b6040516103629190611bfb565b60405180910390f35b61038560048036038101906103809190611ba0565b6108fc565b005b6103a1600480360381019061039c9190611ba0565b610912565b6040516103ae9190611c25565b60405180910390f35b6103d160048036038101906103cc9190611c40565b61096d565b005b6103ed60048036038101906103e89190611c40565b610981565b6040516103fc93929190611c6d565b60405180910390f35b61041f600480360381019061041a9190611f32565b610a50565b005b61043b60048036038101906104369190611c40565b610bb9565b005b61045760048036038101906104529190611f72565b610c10565b6040516104649190611c25565b60405180910390f35b610475610c58565b005b610491600480360381019061048c9190611ba0565b610c6c565b005b6104ad60048036038101906104a89190611f32565b610c8c565b005b6104b7610e3c565b6040516104c49190611fae565b60405180910390f35b6104d5610e66565b6040516104e29190611ad6565b60405180910390f35b61050560048036038101906105009190611ba0565b610ef8565b6040516105129190611bfb565b60405180910390f35b61053560048036038101906105309190611ba0565b610f6f565b6040516105429190611bfb565b60405180910390f35b61056560048036038101906105609190611ba0565b610f92565b005b610581600480360381019061057c9190611fc9565b610ff8565b60405161058e9190611c25565b60405180910390f35b6105b160048036038101906105ac9190611f72565b61107f565b005b6060600380546105c290612038565b80601f01602080910402602001604051908101604052809291908181526020018280546105ee90612038565b801561063b5780601f106106105761010080835404028352916020019161063b565b820191906000526020600020905b81548152906001019060200180831161061e57829003601f168201915b5050505050905090565b600080610650611102565b905061065d81858561110a565b600191505092915050565b6007602052816000526040600020602052806000526040600020600091509150505481565b600061069833610c10565b905090565b6000600254905090565b60606000806000600685815481106106c2576106c1612069565b5b90600052602060002090600302016040518060600160405290816000820180546106eb90612038565b80601f016020809104026020016040519081016040528092919081815260200182805461071790612038565b80156107645780601f1061073957610100808354040283529160200191610764565b820191906000526020600020905b81548152906001019060200180831161074757829003601f168201915b50505050508152602001600182015481526020016002820160009054906101000a900460ff1615151515815250509050806000015181602001518260400151935093509350509193909250565b6000806107bc611102565b90506107c98582856112d3565b6107d485858561135f565b60019150509392505050565b6107e86115d5565b80600683815481106107fd576107fc612069565b5b906000526020600020906003020160020160006101000a81548160ff0219169083151502179055505050565b600090565b6108366115d5565b6006604051806060016040528084815260200183815260200160011515815250908060018154018082558091505060019003906000526020600020906003020160009091909190915060008201518160000190816108949190612244565b506020820151816001015560408201518160020160006101000a81548160ff02191690831515021790555050505050565b6000806108d0611102565b90506108f18185856108e28589610ff8565b6108ec9190612345565b61110a565b600191505092915050565b6109046115d5565b61090e8282611653565b5050565b6000600760008473ffffffffffffffffffffffffffffffffffffffff1673ffffffffffffffffffffffffffffffffffffffff168152602001908152602001600020600083815260200190815260200160002054905092915050565b61097e610978611102565b826117a9565b50565b6006818154811061099157600080fd5b90600052602060002090600302016000915090508060000180546109b490612038565b80601f01602080910402602001604051908101604052809291908181526020018280546109e090612038565b8015610a2d5780601f10610a0257610100808354040283529160200191610a2d565b820191906000526020600020905b815481529060010190602001808311610a1057829003601f168201915b5050505050908060010154908060020160009054906101000a900460ff16905083565b60068281548110610a6457610a63612069565b5b906000526020600020906003020160020160009054906101000a900460ff16610ac2576040517f08c379a0000000000000000000000000000000000000000000000000000000008152600401610ab9906123c5565b60405180910390fd5b60008160068481548110610ad957610ad8612069565b5b906000526020600020906003020160010154610af591906123e5565b905080610b0133610c10565b1015610b42576040517f08c379a0000000000000000000000000000000000000000000000000000000008152600401610b3990612499565b60405180910390fd5b610b4c3082610f6f565b5081600760003373ffffffffffffffffffffffffffffffffffffffff1673ffffffffffffffffffffffffffffffffffffffff16815260200190815260200160002060008581526020019081526020016000206000828254610bad9190612345565b92505081905550505050565b80610bc333610c10565b1015610c04576040517f08c379a0000000000000000000000000000000000000000000000000000000008152600401610bfb90612499565b60405180910390fd5b610c0d8161096d565b50565b60008060008373ffffffffffffffffffffffffffffffffffffffff1673ffffffffffffffffffffffffffffffffffffffff168152602001908152602001600020549050919050565b610c606115d5565b610c6a6000611976565b565b610c7e82610c78611102565b836112d3565b610c8882826117a9565b5050565b60068281548110610ca057610c9f612069565b5b906000526020600020906003020160020160009054906101000a900460ff16610cfe576040517f08c379a0000000000000000000000000000000000000000000000000000000008152600401610cf5906123c5565b60405180910390fd5b60008160068481548110610d1557610d14612069565b5b906000526020600020906003020160010154610d3191906123e5565b905081600760003373ffffffffffffffffffffffffffffffffffffffff1673ffffffffffffffffffffffffffffffffffffffff1681526020019081526020016000206000858152602001908152602001600020541015610dc6576040517f08c379a0000000000000000000000000000000000000000000000000000000008152600401610dbd9061252b565b60405180910390fd5b81600760003373ffffffffffffffffffffffffffffffffffffffff1673ffffffffffffffffffffffffffffffffffffffff16815260200190815260200160002060008581526020019081526020016000206000828254610e26919061254b565b92505081905550610e373382611653565b505050565b6000600560009054906101000a900473ffffffffffffffffffffffffffffffffffffffff16905090565b606060048054610e7590612038565b80601f0160208091040260200160405190810160405280929190818152602001828054610ea190612038565b8015610eee5780601f10610ec357610100808354040283529160200191610eee565b820191906000526020600020905b815481529060010190602001808311610ed157829003601f168201915b5050505050905090565b600080610f03611102565b90506000610f118286610ff8565b905083811015610f56576040517f08c379a0000000000000000000000000000000000000000000000000000000008152600401610f4d906125f1565b60405180910390fd5b610f63828686840361110a565b60019250505092915050565b600080610f7a611102565b9050610f8781858561135f565b600191505092915050565b80610f9c33610c10565b1015610fdd576040517f08c379a0000000000000000000000000000000000000000000000000000000008152600401610fd490612499565b60405180910390fd5b610fe73382610645565b50610ff33383836107b1565b505050565b6000600160008473ffffffffffffffffffffffffffffffffffffffff1673ffffffffffffffffffffffffffffffffffffffff16815260200190815260200160002060008373ffffffffffffffffffffffffffffffffffffffff1673ffffffffffffffffffffffffffffffffffffffff16815260200190815260200160002054905092915050565b6110876115d5565b600073ffffffffffffffffffffffffffffffffffffffff168173ffffffffffffffffffffffffffffffffffffffff16036110f6576040517f08c379a00000000000000000000000000000000000000000000000000000000081526004016110ed90612683565b60405180910390fd5b6110ff81611976565b50565b600033905090565b600073ffffffffffffffffffffffffffffffffffffffff168373ffffffffffffffffffffffffffffffffffffffff1603611179576040517f08c379a000000000000000000000000000000000000000000000000000000000815260040161117090612715565b60405180910390fd5b600073ffffffffffffffffffffffffffffffffffffffff168273ffffffffffffffffffffffffffffffffffffffff16036111e8576040517f08c379a00000000000000000000000000000000000000000000000000000000081526004016111df906127a7565b60405180910390fd5b80600160008573ffffffffffffffffffffffffffffffffffffffff1673ffffffffffffffffffffffffffffffffffffffff16815260200190815260200160002060008473ffffffffffffffffffffffffffffffffffffffff1673ffffffffffffffffffffffffffffffffffffffff168152602001908152602001600020819055508173ffffffffffffffffffffffffffffffffffffffff168373ffffffffffffffffffffffffffffffffffffffff167f8c5be1e5ebec7d5bd14f71427d1e84f3dd0314c0f7b2291e5b200ac8c7c3b925836040516112c69190611c25565b60405180910390a3505050565b60006112df8484610ff8565b90507fffffffffffffffffffffffffffffffffffffffffffffffffffffffffffffffff8114611359578181101561134b576040517f08c379a000000000000000000000000000000000000000000000000000000000815260040161134290612813565b60405180910390fd5b611358848484840361110a565b5b50505050565b600073ffffffffffffffffffffffffffffffffffffffff168373ffffffffffffffffffffffffffffffffffffffff16036113ce576040517f08c379a00000000000000000000000000000000000000000000000000000000081526004016113c5906128a5565b60405180910390fd5b600073ffffffffffffffffffffffffffffffffffffffff168273ffffffffffffffffffffffffffffffffffffffff160361143d576040517f08c379a000000000000000000000000000000000000000000000000000000000815260040161143490612937565b60405180910390fd5b611448838383611a3c565b60008060008573ffffffffffffffffffffffffffffffffffffffff1673ffffffffffffffffffffffffffffffffffffffff168152602001908152602001600020549050818110156114ce576040517f08c379a00000000000000000000000000000000000000000000000000000000081526004016114c5906129c9565b60405180910390fd5b8181036000808673ffffffffffffffffffffffffffffffffffffffff1673ffffffffffffffffffffffffffffffffffffffff16815260200190815260200160002081905550816000808573ffffffffffffffffffffffffffffffffffffffff1673ffffffffffffffffffffffffffffffffffffffff168152602001908152602001600020600082825401925050819055508273ffffffffffffffffffffffffffffffffffffffff168473ffffffffffffffffffffffffffffffffffffffff167fddf252ad1be2c89b69c2b068fc378daa952ba7f163c4a11628f55a4df523b3ef846040516115bc9190611c25565b60405180910390a36115cf848484611a41565b50505050565b6115dd611102565b73ffffffffffffffffffffffffffffffffffffffff166115fb610e3c565b73ffffffffffffffffffffffffffffffffffffffff1614611651576040517f08c379a000000000000000000000000000000000000000000000000000000000815260040161164890612a35565b60405180910390fd5b565b600073ffffffffffffffffffffffffffffffffffffffff168273ffffffffffffffffffffffffffffffffffffffff16036116c2576040517f08c379a00000000000000000000000000000000000000000000000000000000081526004016116b990612aa1565b60405180910390fd5b6116ce60008383611a3c565b80600260008282546116e09190612345565b92505081905550806000808473ffffffffffffffffffffffffffffffffffffffff1673ffffffffffffffffffffffffffffffffffffffff168152602001908152602001600020600082825401925050819055508173ffffffffffffffffffffffffffffffffffffffff16600073ffffffffffffffffffffffffffffffffffffffff167fddf252ad1be2c89b69c2b068fc378daa952ba7f163c4a11628f55a4df523b3ef836040516117919190611c25565b60405180910390a36117a560008383611a41565b5050565b600073ffffffffffffffffffffffffffffffffffffffff168273ffffffffffffffffffffffffffffffffffffffff1603611818576040517f08c379a000000000000000000000000000000000000000000000000000000000815260040161180f90612b33565b60405180910390fd5b61182482600083611a3c565b60008060008473ffffffffffffffffffffffffffffffffffffffff1673ffffffffffffffffffffffffffffffffffffffff168152602001908152602001600020549050818110156118aa576040517f08c379a00000000000000000000000000000000000000000000000000000000081526004016118a190612bc5565b60405180910390fd5b8181036000808573ffffffffffffffffffffffffffffffffffffffff1673ffffffffffffffffffffffffffffffffffffffff1681526020019081526020016000208190555081600260008282540392505081905550600073ffffffffffffffffffffffffffffffffffffffff168373ffffffffffffffffffffffffffffffffffffffff167fddf252ad1be2c89b69c2b068fc378daa952ba7f163c4a11628f55a4df523b3ef8460405161195d9190611c25565b60405180910390a361197183600084611a41565b505050565b6000600560009054906101000a900473ffffffffffffffffffffffffffffffffffffffff16905081600560006101000a81548173ffffffffffffffffffffffffffffffffffffffff021916908373ffffffffffffffffffffffffffffffffffffffff1602179055508173ffffffffffffffffffffffffffffffffffffffff168173ffffffffffffffffffffffffffffffffffffffff167f8be0079c531659141344cd1fd0a4f28419497f9722a3daafe3b4186f6b6457e060405160405180910390a35050565b505050565b505050565b600081519050919050565b600082825260208201905092915050565b60005b83811015611a80578082015181840152602081019050611a65565b60008484015250505050565b6000601f19601f8301169050919050565b6000611aa882611a46565b611ab28185611a51565b9350611ac2818560208601611a62565b611acb81611a8c565b840191505092915050565b60006020820190508181036000830152611af08184611a9d565b905092915050565b6000604051905090565b600080fd5b600080fd5b600073ffffffffffffffffffffffffffffffffffffffff82169050919050565b6000611b3782611b0c565b9050919050565b611b4781611b2c565b8114611b5257600080fd5b50565b600081359050611b6481611b3e565b92915050565b6000819050919050565b611b7d81611b6a565b8114611b8857600080fd5b50565b600081359050611b9a81611b74565b92915050565b60008060408385031215611bb757611bb6611b02565b5b6000611bc585828601611b55565b9250506020611bd685828601611b8b565b9150509250929050565b60008115159050919050565b611bf581611be0565b82525050565b6000602082019050611c106000830184611bec565b92915050565b611c1f81611b6a565b82525050565b6000602082019050611c3a6000830184611c16565b92915050565b600060208284031215611c5657611c55611b02565b5b6000611c6484828501611b8b565b91505092915050565b60006060820190508181036000830152611c878186611a9d565b9050611c966020830185611c16565b611ca36040830184611bec565b949350505050565b600080600060608486031215611cc457611cc3611b02565b5b6000611cd286828701611b55565b9350506020611ce386828701611b55565b9250506040611cf486828701611b8b565b9150509250925092565b611d0781611be0565b8114611d1257600080fd5b50565b600081359050611d2481611cfe565b92915050565b60008060408385031215611d4157611d40611b02565b5b6000611d4f85828601611b8b565b9250506020611d6085828601611d15565b9150509250929050565b600060ff82169050919050565b611d8081611d6a565b82525050565b6000602082019050611d9b6000830184611d77565b92915050565b600080fd5b600080fd5b7f4e487b7100000000000000000000000000000000000000000000000000000000600052604160045260246000fd5b611de382611a8c565b810181811067ffffffffffffffff82111715611e0257611e01611dab565b5b80604052505050565b6000611e15611af8565b9050611e218282611dda565b919050565b600067ffffffffffffffff821115611e4157611e40611dab565b5b611e4a82611a8c565b9050602081019050919050565b82818337600083830152505050565b6000611e79611e7484611e26565b611e0b565b905082815260208101848484011115611e9557611e94611da6565b5b611ea0848285611e57565b509392505050565b600082601f830112611ebd57611ebc611da1565b5b8135611ecd848260208601611e66565b91505092915050565b60008060408385031215611eed57611eec611b02565b5b600083013567ffffffffffffffff811115611f0b57611f0a611b07565b5b611f1785828601611ea8565b9250506020611f2885828601611b8b565b9150509250929050565b60008060408385031215611f4957611f48611b02565b5b6000611f5785828601611b8b565b9250506020611f6885828601611b8b565b9150509250929050565b600060208284031215611f8857611f87611b02565b5b6000611f9684828501611b55565b91505092915050565b611fa881611b2c565b82525050565b6000602082019050611fc36000830184611f9f565b92915050565b60008060408385031215611fe057611fdf611b02565b5b6000611fee85828601611b55565b9250506020611fff85828601611b55565b9150509250929050565b7f4e487b7100000000000000000000000000000000000000000000000000000000600052602260045260246000fd5b6000600282049050600182168061205057607f821691505b60208210810361206357612062612009565b5b50919050565b7f4e487b7100000000000000000000000000000000000000000000000000000000600052603260045260246000fd5b60008190508160005260206000209050919050565b60006020601f8301049050919050565b600082821b905092915050565b6000600883026120fa7fffffffffffffffffffffffffffffffffffffffffffffffffffffffffffffffff826120bd565b61210486836120bd565b95508019841693508086168417925050509392505050565b6000819050919050565b600061214161213c61213784611b6a565b61211c565b611b6a565b9050919050565b6000819050919050565b61215b83612126565b61216f61216782612148565b8484546120ca565b825550505050565b600090565b612184612177565b61218f818484612152565b505050565b5b818110156121b3576121a860008261217c565b600181019050612195565b5050565b601f8211156121f8576121c981612098565b6121d2846120ad565b810160208510156121e1578190505b6121f56121ed856120ad565b830182612194565b50505b505050565b600082821c905092915050565b600061221b600019846008026121fd565b1980831691505092915050565b6000612234838361220a565b9150826002028217905092915050565b61224d82611a46565b67ffffffffffffffff81111561226657612265611dab565b5b6122708254612038565b61227b8282856121b7565b600060209050601f8311600181146122ae576000841561229c578287015190505b6122a68582612228565b86555061230e565b601f1984166122bc86612098565b60005b828110156122e4578489015182556001820191506020850194506020810190506122bf565b8683101561230157848901516122fd601f89168261220a565b8355505b6001600288020188555050505b505050505050565b7f4e487b7100000000000000000000000000000000000000000000000000000000600052601160045260246000fd5b600061235082611b6a565b915061235b83611b6a565b925082820190508082111561237357612372612316565b5b92915050565b7f436c6f7468696e67206974656d206e6f7420617661696c61626c650000000000600082015250565b60006123af601b83611a51565b91506123ba82612379565b602082019050919050565b600060208201905081810360008301526123de816123a2565b9050919050565b60006123f082611b6a565b91506123fb83611b6a565b925082820261240981611b6a565b915082820484148315176124205761241f612316565b5b5092915050565b7f596f7520646f206e6f74206861766520656e6f75676820446567656e20546f6b60008201527f656e730000000000000000000000000000000000000000000000000000000000602082015250565b6000612483602383611a51565b915061248e82612427565b604082019050919050565b600060208201905081810360008301526124b281612476565b9050919050565b7f596f7520646f206e6f74206861766520656e6f756768206f662074686973206960008201527f74656d20746f2072656465656d00000000000000000000000000000000000000602082015250565b6000612515602d83611a51565b9150612520826124b9565b604082019050919050565b6000602082019050818103600083015261254481612508565b9050919050565b600061255682611b6a565b915061256183611b6a565b925082820390508181111561257957612578612316565b5b92915050565b7f45524332303a2064656372656173656420616c6c6f77616e63652062656c6f7760008201527f207a65726f000000000000000000000000000000000000000000000000000000602082015250565b60006125db602583611a51565b91506125e68261257f565b604082019050919050565b6000602082019050818103600083015261260a816125ce565b9050919050565b7f4f776e61626c653a206e6577206f776e657220697320746865207a65726f206160008201527f6464726573730000000000000000000000000000000000000000000000000000602082015250565b600061266d602683611a51565b915061267882612611565b604082019050919050565b6000602082019050818103600083015261269c81612660565b9050919050565b7f45524332303a20617070726f76652066726f6d20746865207a65726f2061646460008201527f7265737300000000000000000000000000000000000000000000000000000000602082015250565b60006126ff602483611a51565b915061270a826126a3565b604082019050919050565b6000602082019050818103600083015261272e816126f2565b9050919050565b7f45524332303a20617070726f766520746f20746865207a65726f20616464726560008201527f7373000000000000000000000000000000000000000000000000000000000000602082015250565b6000612791602283611a51565b915061279c82612735565b604082019050919050565b600060208201905081810360008301526127c081612784565b9050919050565b7f45524332303a20696e73756666696369656e7420616c6c6f77616e6365000000600082015250565b60006127fd601d83611a51565b9150612808826127c7565b602082019050919050565b6000602082019050818103600083015261282c816127f0565b9050919050565b7f45524332303a207472616e736665722066726f6d20746865207a65726f20616460008201527f6472657373000000000000000000000000000000000000000000000000000000602082015250565b600061288f602583611a51565b915061289a82612833565b604082019050919050565b600060208201905081810360008301526128be81612882565b9050919050565b7f45524332303a207472616e7366657220746f20746865207a65726f206164647260008201527f6573730000000000000000000000000000000000000000000000000000000000602082015250565b6000612921602383611a51565b915061292c826128c5565b604082019050919050565b6000602082019050818103600083015261295081612914565b9050919050565b7f45524332303a207472616e7366657220616d6f756e742065786365656473206260008201527f616c616e63650000000000000000000000000000000000000000000000000000602082015250565b60006129b3602683611a51565b91506129be82612957565b604082019050919050565b600060208201905081810360008301526129e2816129a6565b9050919050565b7f4f776e61626c653a2063616c6c6572206973206e6f7420746865206f776e6572600082015250565b6000612a1f602083611a51565b9150612a2a826129e9565b602082019050919050565b60006020820190508181036000830152612a4e81612a12565b9050919050565b7f45524332303a206d696e7420746f20746865207a65726f206164647265737300600082015250565b6000612a8b601f83611a51565b9150612a9682612a55565b602082019050919050565b60006020820190508181036000830152612aba81612a7e565b9050919050565b7f45524332303a206275726e2066726f6d20746865207a65726f2061646472657360008201527f7300000000000000000000000000000000000000000000000000000000000000602082015250565b6000612b1d602183611a51565b9150612b2882612ac1565b604082019050919050565b60006020820190508181036000830152612b4c81612b10565b9050919050565b7f45524332303a206275726e20616d6f756e7420657863656564732062616c616e60008201527f6365000000000000000000000000000000000000000000000000000000000000602082015250565b6000612baf602283611a51565b9150612bba82612b53565b604082019050919050565b60006020820190508181036000830152612bde81612ba2565b905091905056fea2646970667358221220c13e0c71bcf4ae2802f82b0de7968715ea287b53f3efb26af4c5b54b02271ad664736f6c63430008120033",
  "linkReferences": {},
  "deployedLinkReferences": {}
}