{
  "_format": "hh-sol-artifact-1",
  "contractName": "DegenToken",
  "sourceName": "contracts/DegenToken.sol",
  "abi": [
    {
      "inputs": [],
      "stateMutability": "nonpayable",
      "type": "constructor"
    },
    {
      "anonymous": false,
      "inputs": [
        {
          "indexed": true,
          "internalType": "address",
          "name": "owner",
          "type": "address"
        },
        {
          "indexed": true,
          "internalType": "address",
          "name": "spender",
          "type": "address"
        },
        {
          "indexed": false,
          "internalType": "uint256",
          "name": "value",
          "type": "uint256"
        }
      ],
      "name": "Approval",
      "type": "event"
    },
    {
      "anonymous": false,
      "inputs": [
        {
          "indexed": true,
          "internalType": "address",
          "name": "previousOwner",
          "type": "address"
        },
        {
          "indexed": true,
          "internalType": "address",
          "name": "newOwner",
          "type": "address"
        }
      ],
      "name": "OwnershipTransferred",
      "type": "event"
    },
    {
      "anonymous": false,
      "inputs": [
        {
          "indexed": true,
          "internalType": "address",
          "name": "from",
          "type": "address"
        },
        {
          "indexed": true,
          "internalType": "address",
          "name": "to",
          "type": "address"
        },
        {
          "indexed": false,
          "internalType": "uint256",
          "name": "value",
          "type": "uint256"
        }
      ],
      "name": "Transfer",
      "type": "event"
    },
    {
      "inputs": [
        {
          "internalType": "string",
          "name": "name",
          "type": "string"
        },
        {
          "internalType": "uint256",
          "name": "price",
          "type": "uint256"
        }
      ],
      "name": "addClothingItem",
      "outputs": [],
      "stateMutability": "nonpayable",
      "type": "function"
    },
    {
      "inputs": [
        {
          "internalType": "address",
          "name": "owner",
          "type": "address"
        },
        {
          "internalType": "address",
          "name": "spender",
          "type": "address"
        }
      ],
      "name": "allowance",
      "outputs": [
        {
          "internalType": "uint256",
          "name": "",
          "type": "uint256"
        }
      ],
      "stateMutability": "view",
      "type": "function"
    },
    {
      "inputs": [
        {
          "internalType": "address",
          "name": "spender",
          "type": "address"
        },
        {
          "internalType": "uint256",
          "name": "amount",
          "type": "uint256"
        }
      ],
      "name": "approve",
      "outputs": [
        {
          "internalType": "bool",
          "name": "",
          "type": "bool"
        }
      ],
      "stateMutability": "nonpayable",
      "type": "function"
    },
    {
      "inputs": [
        {
          "internalType": "address",
          "name": "account",
          "type": "address"
        }
      ],
      "name": "balanceOf",
      "outputs": [
        {
          "internalType": "uint256",
          "name": "",
          "type": "uint256"
        }
      ],
      "stateMutability": "view",
      "type": "function"
    },
    {
      "inputs": [
        {
          "internalType": "uint256",
          "name": "amount",
          "type": "uint256"
        }
      ],
      "name": "burn",
      "outputs": [],
      "stateMutability": "nonpayable",
      "type": "function"
    },
    {
      "inputs": [
        {
          "internalType": "address",
          "name": "account",
          "type": "address"
        },
        {
          "internalType": "uint256",
          "name": "amount",
          "type": "uint256"
        }
      ],
      "name": "burnFrom",
      "outputs": [],
      "stateMutability": "nonpayable",
      "type": "function"
    },
    {
      "inputs": [
        {
          "internalType": "uint256",
          "name": "value",
          "type": "uint256"
        }
      ],
      "name": "burnTokens",
      "outputs": [],
      "stateMutability": "nonpayable",
      "type": "function"
    },
    {
      "inputs": [
        {
          "internalType": "uint256",
          "name": "itemId",
          "type": "uint256"
        },
        {
          "internalType": "uint256",
          "name": "quantity",
          "type": "uint256"
        }
      ],
      "name": "buyClothingItem",
      "outputs": [],
      "stateMutability": "nonpayable",
      "type": "function"
    },
    {
      "inputs": [
        {
          "internalType": "uint256",
          "name": "",
          "type": "uint256"
        }
      ],
      "name": "clothingItems",
      "outputs": [
        {
          "internalType": "string",
          "name": "name",
          "type": "string"
        },
        {
          "internalType": "uint256",
          "name": "price",
          "type": "uint256"
        },
        {
          "internalType": "bool",
          "name": "available",
          "type": "bool"
        }
      ],
      "stateMutability": "view",
      "type": "function"
    },
    {
      "inputs": [],
      "name": "decimals",
      "outputs": [
        {
          "internalType": "uint8",
          "name": "",
          "type": "uint8"
        }
      ],
      "stateMutability": "pure",
      "type": "function"
    },
    {
      "inputs": [
        {
          "internalType": "address",
          "name": "spender",
          "type": "address"
        },
        {
          "internalType": "uint256",
          "name": "subtractedValue",
          "type": "uint256"
        }
      ],
      "name": "decreaseAllowance",
      "outputs": [
        {
          "internalType": "bool",
          "name": "",
          "type": "bool"
        }
      ],
      "stateMutability": "nonpayable",
      "type": "function"
    },
    {
      "inputs": [],
      "name": "getBalance",
      "outputs": [
        {
          "internalType": "uint256",
          "name": "",
          "type": "uint256"
        }
      ],
      "stateMutability": "view",
      "type": "function"
    },
    {
      "inputs": [
        {
          "internalType": "uint256",
          "name": "itemId",
          "type": "uint256"
        }
      ],
      "name": "getClothingItem",
      "outputs": [
        {
          "internalType": "string",
          "name": "",
          "type": "string"
        },
        {
          "internalType": "uint256",
          "name": "",
          "type": "uint256"
        },
        {
          "internalType": "bool",
          "name": "",
          "type": "bool"
        }
      ],
      "stateMutability": "view",
      "type": "function"
    },
    {
      "inputs": [
        {
          "internalType": "address",
          "name": "user",
          "type": "address"
        },
        {
          "internalType": "uint256",
          "name": "itemId",
          "type": "uint256"
        }
      ],
      "name": "getUserClothingBalance",
      "outputs": [
        {
          "internalType": "uint256",
          "name": "",
          "type": "uint256"
        }
      ],
      "stateMutability": "view",
      "type": "function"
    },
    {
      "inputs": [
        {
          "internalType": "address",
          "name": "spender",
          "type": "address"
        },
        {
          "internalType": "uint256",
          "name": "addedValue",
          "type": "uint256"
        }
      ],
      "name": "increaseAllowance",
      "outputs": [
        {
          "internalType": "bool",
          "name": "",
          "type": "bool"
        }
      ],
      "stateMutability": "nonpayable",
      "type": "function"
    },
    {
      "inputs": [
        {
          "internalType": "address",
          "name": "to",
          "type": "address"
        },
        {
          "internalType": "uint256",
          "name": "amount",
          "type": "uint256"
        }
      ],
      "name": "mint",
      "outputs": [],
      "stateMutability": "nonpayable",
      "type": "function"
    },
    {
      "inputs": [],
      "name": "name",
      "outputs": [
        {
          "internalType": "string",
          "name": "",
          "type": "string"
        }
      ],
      "stateMutability": "view",
      "type": "function"
    },
    {
      "inputs": [],
      "name": "owner",
      "outputs": [
        {
          "internalType": "address",
          "name": "",
          "type": "address"
        }
      ],
      "stateMutability": "view",
      "type": "function"
    },
    {
      "inputs": [],
      "name": "renounceOwnership",
      "outputs": [],
      "stateMutability": "nonpayable",
      "type": "function"
    },
    {
      "inputs": [
        {
          "internalType": "uint256",
          "name": "itemId",
          "type": "uint256"
        },
        {
          "internalType": "bool",
          "name": "available",
          "type": "bool"
        }
      ],
      "name": "setClothingItemAvailability",
      "outputs": [],
      "stateMutability": "nonpayable",
      "type": "function"
    },
    {
      "inputs": [],
      "name": "symbol",
      "outputs": [
        {
          "internalType": "string",
          "name": "",
          "type": "string"
        }
      ],
      "stateMutability": "view",
      "type": "function"
    },
    {
      "inputs": [],
      "name": "totalSupply",
      "outputs": [
        {
          "internalType": "uint256",
          "name": "",
          "type": "uint256"
        }
      ],
      "stateMutability": "view",
      "type": "function"
    },
    {
      "inputs": [
        {
          "internalType": "address",
          "name": "to",
          "type": "address"
        },
        {
          "internalType": "uint256",
          "name": "amount",
          "type": "uint256"
        }
      ],
      "name": "transfer",
      "outputs": [
        {
          "internalType": "bool",
          "name": "",
          "type": "bool"
        }
      ],
      "stateMutability": "nonpayable",
      "type": "function"
    },
    {
      "inputs": [
        {
          "internalType": "address",
          "name": "from",
          "type": "address"
        },
        {
          "internalType": "address",
          "name": "to",
          "type": "address"
        },
        {
          "internalType": "uint256",
          "name": "amount",
          "type": "uint256"
        }
      ],
      "name": "transferFrom",
      "outputs": [
        {
          "internalType": "bool",
          "name": "",
          "type": "bool"
        }
      ],
      "stateMutability": "nonpayable",
      "type": "function"
    },
    {
      "inputs": [
        {
          "internalType": "address",
          "name": "newOwner",
          "type": "address"
        }
      ],
      "name": "transferOwnership",
      "outputs": [],
      "stateMutability": "nonpayable",
      "type": "function"
    },
    {
      "inputs": [
        {
          "internalType": "address",
          "name": "receiver",
          "type": "address"
        },
        {
          "internalType": "uint256",
          "name": "value",
          "type": "uint256"
        }
      ],
      "name": "transferTokens",
      "outputs": [],
      "stateMutability": "nonpayable",
      "type": "function"
    },
    {
      "inputs": [
        {
          "internalType": "address",
          "name": "",
          "type": "address"
        },
        {
          "internalType": "uint256",
          "name": "",
          "type": "uint256"
        }
      ],
      "name": "userClothingBalances",
      "outputs": [
        {
          "internalType": "uint256",
          "name": "",
          "type": "uint256"
        }
      ],
      "stateMutability": "view",
      "type": "function"
    }
  ],
  "bytecode": "0x60806040523480156200001157600080fd5b506040518060400160405280600581526020017f446567656e0000000000000000000000000000000000000000000000000000008152506040518060400160405280600381526020017f44474e000000000000000000000000000000000000000000000000000000000081525081600390816200008f9190620006de565b508060049081620000a19190620006de565b505050620000c4620000b86200039160201b60201c565b6200039960201b60201c565b600660405180606001604052806040518060400160405280600b81526020017f5669727475616c2048617400000000000000000000000000000000000000000081525081526020016200011c6200045f60201b60201c565b600a6200012a919062000955565b6064620001389190620009a6565b81526020016001151581525090806001815401808255809150506001900390600052602060002090600302016000909190919091506000820151816000019081620001849190620006de565b506020820151816001015560408201518160020160006101000a81548160ff0219169083151502179055505050600660405180606001604052806040518060400160405280600d81526020017f5669727475616c205368697274000000000000000000000000000000000000008152508152602001620002096200045f60201b60201c565b600a62000217919062000955565b60c8620002259190620009a6565b81526020016001151581525090806001815401808255809150506001900390600052602060002090600302016000909190919091506000820151816000019081620002719190620006de565b506020820151816001015560408201518160020160006101000a81548160ff0219169083151502179055505050600660405180606001604052806040518060400160405280600d81526020017f5669727475616c2050616e7473000000000000000000000000000000000000008152508152602001620002f66200045f60201b60201c565b600a62000304919062000955565b6096620003129190620009a6565b815260200160011515815250908060018154018082558091505060019003906000526020600020906003020160009091909190915060008201518160000190816200035e9190620006de565b506020820151816001015560408201518160020160006101000a81548160ff0219169083151502179055505050620009f1565b600033905090565b6000600560009054906101000a900473ffffffffffffffffffffffffffffffffffffffff16905081600560006101000a81548173ffffffffffffffffffffffffffffffffffffffff021916908373ffffffffffffffffffffffffffffffffffffffff1602179055508173ffffffffffffffffffffffffffffffffffffffff168173ffffffffffffffffffffffffffffffffffffffff167f8be0079c531659141344cd1fd0a4f28419497f9722a3daafe3b4186f6b6457e060405160405180910390a35050565b600090565b600081519050919050565b7f4e487b7100000000000000000000000000000000000000000000000000000000600052604160045260246000fd5b7f4e487b7100000000000000000000000000000000000000000000000000000000600052602260045260246000fd5b60006002820490506001821680620004e657607f821691505b602082108103620004fc57620004fb6200049e565b5b50919050565b60008190508160005260206000209050919050565b60006020601f8301049050919050565b600082821b905092915050565b600060088302620005667fffffffffffffffffffffffffffffffffffffffffffffffffffffffffffffffff8262000527565b62000572868362000527565b95508019841693508086168417925050509392505050565b6000819050919050565b6000819050919050565b6000620005bf620005b9620005b3846200058a565b62000594565b6200058a565b9050919050565b6000819050919050565b620005db836200059e565b620005f3620005ea82620005c6565b84845462000534565b825550505050565b600090565b6200060a620005fb565b62000617818484620005d0565b505050565b5b818110156200063f576200063360008262000600565b6001810190506200061d565b5050565b601f8211156200068e57620006588162000502565b620006638462000517565b8101602085101562000673578190505b6200068b620006828562000517565b8301826200061c565b50505b505050565b600082821c905092915050565b6000620006b36000198460080262000693565b1980831691505092915050565b6000620006ce8383620006a0565b9150826002028217905092915050565b620006e98262000464565b67ffffffffffffffff8111156200070557620007046200046f565b5b620007118254620004cd565b6200071e82828562000643565b600060209050601f83116001811462000756576000841562000741578287015190505b6200074d8582620006c0565b865550620007bd565b601f198416620007668662000502565b60005b82811015620007905784890151825560018201915060208501945060208101905062000769565b86831015620007b05784890151620007ac601f891682620006a0565b8355505b6001600288020188555050505b505050505050565b7f4e487b7100000000000000000000000000000000000000000000000000000000600052601160045260246000fd5b60008160011c9050919050565b6000808291508390505b600185111562000853578086048111156200082b576200082a620007c5565b5b60018516156200083b5780820291505b80810290506200084b85620007f4565b94506200080b565b94509492505050565b6000826200086e576001905062000941565b816200087e576000905062000941565b8160018114620008975760028114620008a257620008d8565b600191505062000941565b60ff841115620008b757620008b6620007c5565b5b8360020a915084821115620008d157620008d0620007c5565b5b5062000941565b5060208310610133831016604e8410600b8410161715620009125782820a9050838111156200090c576200090b620007c5565b5b62000941565b62000921848484600162000801565b925090508184048111156200093b576200093a620007c5565b5b81810290505b9392505050565b600060ff82169050919050565b600062000962826200058a565b91506200096f8362000948565b92506200099e7fffffffffffffffffffffffffffffffffffffffffffffffffffffffffffffffff84846200085c565b905092915050565b6000620009b3826200058a565b9150620009c0836200058a565b9250828202620009d0816200058a565b91508282048414831517620009ea57620009e9620007c5565b5b5092915050565b61296e8062000a016000396000f3fe608060405234801561001057600080fd5b50600436106101a95760003560e01c806342966c68116100f95780638da5cb5b11610097578063a9059cbb11610071578063a9059cbb146104e4578063bec3fa1714610514578063dd62ed3e14610530578063f2fde38b14610560576101a9565b80638da5cb5b1461047857806395d89b4114610496578063a457c2d7146104b4576101a9565b80636d1b229d116100d35780636d1b229d1461040657806370a0823114610422578063715018a61461045257806379cc67901461045c576101a9565b806342966c681461039c57806344b4867a146103b85780634a886530146103ea576101a9565b806323b872dd1161016657806333ac4f251161014057806333ac4f2514610304578063395093511461032057806340c10f191461035057806341e7370d1461036c576101a9565b806323b872dd1461029a57806330805c51146102ca578063313ce567146102e6576101a9565b806306fdde03146101ae578063095ea7b3146101cc5780630d909cd1146101fc57806312065fe01461022c57806318160ddd1461024a5780631e9ef2f214610268575b600080fd5b6101b661057c565b6040516101c391906118ef565b60405180910390f35b6101e660048036038101906101e191906119b9565b61060e565b6040516101f39190611a14565b60405180910390f35b610216600480360381019061021191906119b9565b610631565b6040516102239190611a3e565b60405180910390f35b610234610656565b6040516102419190611a3e565b60405180910390f35b610252610666565b60405161025f9190611a3e565b60405180910390f35b610282600480360381019061027d9190611a59565b610670565b60405161029193929190611a86565b60405180910390f35b6102b460048036038101906102af9190611ac4565b61077a565b6040516102c19190611a14565b60405180910390f35b6102e460048036038101906102df9190611b43565b6107a9565b005b6102ee6107f2565b6040516102fb9190611b9f565b60405180910390f35b61031e60048036038101906103199190611cef565b6107f7565b005b61033a600480360381019061033591906119b9565b61088e565b6040516103479190611a14565b60405180910390f35b61036a600480360381019061036591906119b9565b6108c5565b005b610386600480360381019061038191906119b9565b6108db565b6040516103939190611a3e565b60405180910390f35b6103b660048036038101906103b19190611a59565b610936565b005b6103d260048036038101906103cd9190611a59565b61094a565b6040516103e193929190611a86565b60405180910390f35b61040460048036038101906103ff9190611d4b565b610a19565b005b610420600480360381019061041b9190611a59565b610b82565b005b61043c60048036038101906104379190611d8b565b610bd9565b6040516104499190611a3e565b60405180910390f35b61045a610c21565b005b610476600480360381019061047191906119b9565b610c35565b005b610480610c55565b60405161048d9190611dc7565b60405180910390f35b61049e610c7f565b6040516104ab91906118ef565b60405180910390f35b6104ce60048036038101906104c991906119b9565b610d11565b6040516104db9190611a14565b60405180910390f35b6104fe60048036038101906104f991906119b9565b610d88565b60405161050b9190611a14565b60405180910390f35b61052e600480360381019061052991906119b9565b610dab565b005b61054a60048036038101906105459190611de2565b610e11565b6040516105579190611a3e565b60405180910390f35b61057a60048036038101906105759190611d8b565b610e98565b005b60606003805461058b90611e51565b80601f01602080910402602001604051908101604052809291908181526020018280546105b790611e51565b80156106045780601f106105d957610100808354040283529160200191610604565b820191906000526020600020905b8154815290600101906020018083116105e757829003601f168201915b5050505050905090565b600080610619610f1b565b9050610626818585610f23565b600191505092915050565b6007602052816000526040600020602052806000526040600020600091509150505481565b600061066133610bd9565b905090565b6000600254905090565b606060008060006006858154811061068b5761068a611e82565b5b90600052602060002090600302016040518060600160405290816000820180546106b490611e51565b80601f01602080910402602001604051908101604052809291908181526020018280546106e090611e51565b801561072d5780601f106107025761010080835404028352916020019161072d565b820191906000526020600020905b81548152906001019060200180831161071057829003601f168201915b50505050508152602001600182015481526020016002820160009054906101000a900460ff1615151515815250509050806000015181602001518260400151935093509350509193909250565b600080610785610f1b565b90506107928582856110ec565b61079d858585611178565b60019150509392505050565b6107b16113ee565b80600683815481106107c6576107c5611e82565b5b906000526020600020906003020160020160006101000a81548160ff0219169083151502179055505050565b600090565b6107ff6113ee565b60066040518060600160405280848152602001838152602001600115158152509080600181540180825580915050600190039060005260206000209060030201600090919091909150600082015181600001908161085d919061205d565b506020820151816001015560408201518160020160006101000a81548160ff02191690831515021790555050505050565b600080610899610f1b565b90506108ba8185856108ab8589610e11565b6108b5919061215e565b610f23565b600191505092915050565b6108cd6113ee565b6108d7828261146c565b5050565b6000600760008473ffffffffffffffffffffffffffffffffffffffff1673ffffffffffffffffffffffffffffffffffffffff168152602001908152602001600020600083815260200190815260200160002054905092915050565b610947610941610f1b565b826115c2565b50565b6006818154811061095a57600080fd5b906000526020600020906003020160009150905080600001805461097d90611e51565b80601f01602080910402602001604051908101604052809291908181526020018280546109a990611e51565b80156109f65780601f106109cb576101008083540402835291602001916109f6565b820191906000526020600020905b8154815290600101906020018083116109d957829003601f168201915b5050505050908060010154908060020160009054906101000a900460ff16905083565b60068281548110610a2d57610a2c611e82565b5b906000526020600020906003020160020160009054906101000a900460ff16610a8b576040517f08c379a0000000000000000000000000000000000000000000000000000000008152600401610a82906121de565b60405180910390fd5b60008160068481548110610aa257610aa1611e82565b5b906000526020600020906003020160010154610abe91906121fe565b905080610aca33610bd9565b1015610b0b576040517f08c379a0000000000000000000000000000000000000000000000000000000008152600401610b02906122b2565b60405180910390fd5b610b153082610d88565b5081600760003373ffffffffffffffffffffffffffffffffffffffff1673ffffffffffffffffffffffffffffffffffffffff16815260200190815260200160002060008581526020019081526020016000206000828254610b76919061215e565b92505081905550505050565b80610b8c33610bd9565b1015610bcd576040517f08c379a0000000000000000000000000000000000000000000000000000000008152600401610bc4906122b2565b60405180910390fd5b610bd681610936565b50565b60008060008373ffffffffffffffffffffffffffffffffffffffff1673ffffffffffffffffffffffffffffffffffffffff168152602001908152602001600020549050919050565b610c296113ee565b610c33600061178f565b565b610c4782610c41610f1b565b836110ec565b610c5182826115c2565b5050565b6000600560009054906101000a900473ffffffffffffffffffffffffffffffffffffffff16905090565b606060048054610c8e90611e51565b80601f0160208091040260200160405190810160405280929190818152602001828054610cba90611e51565b8015610d075780601f10610cdc57610100808354040283529160200191610d07565b820191906000526020600020905b815481529060010190602001808311610cea57829003601f168201915b5050505050905090565b600080610d1c610f1b565b90506000610d2a8286610e11565b905083811015610d6f576040517f08c379a0000000000000000000000000000000000000000000000000000000008152600401610d6690612344565b60405180910390fd5b610d7c8286868403610f23565b60019250505092915050565b600080610d93610f1b565b9050610da0818585611178565b600191505092915050565b80610db533610bd9565b1015610df6576040517f08c379a0000000000000000000000000000000000000000000000000000000008152600401610ded906122b2565b60405180910390fd5b610e00338261060e565b50610e0c33838361077a565b505050565b6000600160008473ffffffffffffffffffffffffffffffffffffffff1673ffffffffffffffffffffffffffffffffffffffff16815260200190815260200160002060008373ffffffffffffffffffffffffffffffffffffffff1673ffffffffffffffffffffffffffffffffffffffff16815260200190815260200160002054905092915050565b610ea06113ee565b600073ffffffffffffffffffffffffffffffffffffffff168173ffffffffffffffffffffffffffffffffffffffff1603610f0f576040517f08c379a0000000000000000000000000000000000000000000000000000000008152600401610f06906123d6565b60405180910390fd5b610f188161178f565b50565b600033905090565b600073ffffffffffffffffffffffffffffffffffffffff168373ffffffffffffffffffffffffffffffffffffffff1603610f92576040517f08c379a0000000000000000000000000000000000000000000000000000000008152600401610f8990612468565b60405180910390fd5b600073ffffffffffffffffffffffffffffffffffffffff168273ffffffffffffffffffffffffffffffffffffffff1603611001576040517f08c379a0000000000000000000000000000000000000000000000000000000008152600401610ff8906124fa565b60405180910390fd5b80600160008573ffffffffffffffffffffffffffffffffffffffff1673ffffffffffffffffffffffffffffffffffffffff16815260200190815260200160002060008473ffffffffffffffffffffffffffffffffffffffff1673ffffffffffffffffffffffffffffffffffffffff168152602001908152602001600020819055508173ffffffffffffffffffffffffffffffffffffffff168373ffffffffffffffffffffffffffffffffffffffff167f8c5be1e5ebec7d5bd14f71427d1e84f3dd0314c0f7b2291e5b200ac8c7c3b925836040516110df9190611a3e565b60405180910390a3505050565b60006110f88484610e11565b90507fffffffffffffffffffffffffffffffffffffffffffffffffffffffffffffffff81146111725781811015611164576040517f08c379a000000000000000000000000000000000000000000000000000000000815260040161115b90612566565b60405180910390fd5b6111718484848403610f23565b5b50505050565b600073ffffffffffffffffffffffffffffffffffffffff168373ffffffffffffffffffffffffffffffffffffffff16036111e7576040517f08c379a00000000000000000000000000000000000000000000000000000000081526004016111de906125f8565b60405180910390fd5b600073ffffffffffffffffffffffffffffffffffffffff168273ffffffffffffffffffffffffffffffffffffffff1603611256576040517f08c379a000000000000000000000000000000000000000000000000000000000815260040161124d9061268a565b60405180910390fd5b611261838383611855565b60008060008573ffffffffffffffffffffffffffffffffffffffff1673ffffffffffffffffffffffffffffffffffffffff168152602001908152602001600020549050818110156112e7576040517f08c379a00000000000000000000000000000000000000000000000000000000081526004016112de9061271c565b60405180910390fd5b8181036000808673ffffffffffffffffffffffffffffffffffffffff1673ffffffffffffffffffffffffffffffffffffffff16815260200190815260200160002081905550816000808573ffffffffffffffffffffffffffffffffffffffff1673ffffffffffffffffffffffffffffffffffffffff168152602001908152602001600020600082825401925050819055508273ffffffffffffffffffffffffffffffffffffffff168473ffffffffffffffffffffffffffffffffffffffff167fddf252ad1be2c89b69c2b068fc378daa952ba7f163c4a11628f55a4df523b3ef846040516113d59190611a3e565b60405180910390a36113e884848461185a565b50505050565b6113f6610f1b565b73ffffffffffffffffffffffffffffffffffffffff16611414610c55565b73ffffffffffffffffffffffffffffffffffffffff161461146a576040517f08c379a000000000000000000000000000000000000000000000000000000000815260040161146190612788565b60405180910390fd5b565b600073ffffffffffffffffffffffffffffffffffffffff168273ffffffffffffffffffffffffffffffffffffffff16036114db576040517f08c379a00000000000000000000000000000000000000000000000000000000081526004016114d2906127f4565b60405180910390fd5b6114e760008383611855565b80600260008282546114f9919061215e565b92505081905550806000808473ffffffffffffffffffffffffffffffffffffffff1673ffffffffffffffffffffffffffffffffffffffff168152602001908152602001600020600082825401925050819055508173ffffffffffffffffffffffffffffffffffffffff16600073ffffffffffffffffffffffffffffffffffffffff167fddf252ad1be2c89b69c2b068fc378daa952ba7f163c4a11628f55a4df523b3ef836040516115aa9190611a3e565b60405180910390a36115be6000838361185a565b5050565b600073ffffffffffffffffffffffffffffffffffffffff168273ffffffffffffffffffffffffffffffffffffffff1603611631576040517f08c379a000000000000000000000000000000000000000000000000000000000815260040161162890612886565b60405180910390fd5b61163d82600083611855565b60008060008473ffffffffffffffffffffffffffffffffffffffff1673ffffffffffffffffffffffffffffffffffffffff168152602001908152602001600020549050818110156116c3576040517f08c379a00000000000000000000000000000000000000000000000000000000081526004016116ba90612918565b60405180910390fd5b8181036000808573ffffffffffffffffffffffffffffffffffffffff1673ffffffffffffffffffffffffffffffffffffffff1681526020019081526020016000208190555081600260008282540392505081905550600073ffffffffffffffffffffffffffffffffffffffff168373ffffffffffffffffffffffffffffffffffffffff167fddf252ad1be2c89b69c2b068fc378daa952ba7f163c4a11628f55a4df523b3ef846040516117769190611a3e565b60405180910390a361178a8360008461185a565b505050565b6000600560009054906101000a900473ffffffffffffffffffffffffffffffffffffffff16905081600560006101000a81548173ffffffffffffffffffffffffffffffffffffffff021916908373ffffffffffffffffffffffffffffffffffffffff1602179055508173ffffffffffffffffffffffffffffffffffffffff168173ffffffffffffffffffffffffffffffffffffffff167f8be0079c531659141344cd1fd0a4f28419497f9722a3daafe3b4186f6b6457e060405160405180910390a35050565b505050565b505050565b600081519050919050565b600082825260208201905092915050565b60005b8381101561189957808201518184015260208101905061187e565b60008484015250505050565b6000601f19601f8301169050919050565b60006118c18261185f565b6118cb818561186a565b93506118db81856020860161187b565b6118e4816118a5565b840191505092915050565b6000602082019050818103600083015261190981846118b6565b905092915050565b6000604051905090565b600080fd5b600080fd5b600073ffffffffffffffffffffffffffffffffffffffff82169050919050565b600061195082611925565b9050919050565b61196081611945565b811461196b57600080fd5b50565b60008135905061197d81611957565b92915050565b6000819050919050565b61199681611983565b81146119a157600080fd5b50565b6000813590506119b38161198d565b92915050565b600080604083850312156119d0576119cf61191b565b5b60006119de8582860161196e565b92505060206119ef858286016119a4565b9150509250929050565b60008115159050919050565b611a0e816119f9565b82525050565b6000602082019050611a296000830184611a05565b92915050565b611a3881611983565b82525050565b6000602082019050611a536000830184611a2f565b92915050565b600060208284031215611a6f57611a6e61191b565b5b6000611a7d848285016119a4565b91505092915050565b60006060820190508181036000830152611aa081866118b6565b9050611aaf6020830185611a2f565b611abc6040830184611a05565b949350505050565b600080600060608486031215611add57611adc61191b565b5b6000611aeb8682870161196e565b9350506020611afc8682870161196e565b9250506040611b0d868287016119a4565b9150509250925092565b611b20816119f9565b8114611b2b57600080fd5b50565b600081359050611b3d81611b17565b92915050565b60008060408385031215611b5a57611b5961191b565b5b6000611b68858286016119a4565b9250506020611b7985828601611b2e565b9150509250929050565b600060ff82169050919050565b611b9981611b83565b82525050565b6000602082019050611bb46000830184611b90565b92915050565b600080fd5b600080fd5b7f4e487b7100000000000000000000000000000000000000000000000000000000600052604160045260246000fd5b611bfc826118a5565b810181811067ffffffffffffffff82111715611c1b57611c1a611bc4565b5b80604052505050565b6000611c2e611911565b9050611c3a8282611bf3565b919050565b600067ffffffffffffffff821115611c5a57611c59611bc4565b5b611c63826118a5565b9050602081019050919050565b82818337600083830152505050565b6000611c92611c8d84611c3f565b611c24565b905082815260208101848484011115611cae57611cad611bbf565b5b611cb9848285611c70565b509392505050565b600082601f830112611cd657611cd5611bba565b5b8135611ce6848260208601611c7f565b91505092915050565b60008060408385031215611d0657611d0561191b565b5b600083013567ffffffffffffffff811115611d2457611d23611920565b5b611d3085828601611cc1565b9250506020611d41858286016119a4565b9150509250929050565b60008060408385031215611d6257611d6161191b565b5b6000611d70858286016119a4565b9250506020611d81858286016119a4565b9150509250929050565b600060208284031215611da157611da061191b565b5b6000611daf8482850161196e565b91505092915050565b611dc181611945565b82525050565b6000602082019050611ddc6000830184611db8565b92915050565b60008060408385031215611df957611df861191b565b5b6000611e078582860161196e565b9250506020611e188582860161196e565b9150509250929050565b7f4e487b7100000000000000000000000000000000000000000000000000000000600052602260045260246000fd5b60006002820490506001821680611e6957607f821691505b602082108103611e7c57611e7b611e22565b5b50919050565b7f4e487b7100000000000000000000000000000000000000000000000000000000600052603260045260246000fd5b60008190508160005260206000209050919050565b60006020601f8301049050919050565b600082821b905092915050565b600060088302611f137fffffffffffffffffffffffffffffffffffffffffffffffffffffffffffffffff82611ed6565b611f1d8683611ed6565b95508019841693508086168417925050509392505050565b6000819050919050565b6000611f5a611f55611f5084611983565b611f35565b611983565b9050919050565b6000819050919050565b611f7483611f3f565b611f88611f8082611f61565b848454611ee3565b825550505050565b600090565b611f9d611f90565b611fa8818484611f6b565b505050565b5b81811015611fcc57611fc1600082611f95565b600181019050611fae565b5050565b601f82111561201157611fe281611eb1565b611feb84611ec6565b81016020851015611ffa578190505b61200e61200685611ec6565b830182611fad565b50505b505050565b600082821c905092915050565b600061203460001984600802612016565b1980831691505092915050565b600061204d8383612023565b9150826002028217905092915050565b6120668261185f565b67ffffffffffffffff81111561207f5761207e611bc4565b5b6120898254611e51565b612094828285611fd0565b600060209050601f8311600181146120c757600084156120b5578287015190505b6120bf8582612041565b865550612127565b601f1984166120d586611eb1565b60005b828110156120fd578489015182556001820191506020850194506020810190506120d8565b8683101561211a5784890151612116601f891682612023565b8355505b6001600288020188555050505b505050505050565b7f4e487b7100000000000000000000000000000000000000000000000000000000600052601160045260246000fd5b600061216982611983565b915061217483611983565b925082820190508082111561218c5761218b61212f565b5b92915050565b7f436c6f7468696e67206974656d206e6f7420617661696c61626c650000000000600082015250565b60006121c8601b8361186a565b91506121d382612192565b602082019050919050565b600060208201905081810360008301526121f7816121bb565b9050919050565b600061220982611983565b915061221483611983565b925082820261222281611983565b915082820484148315176122395761223861212f565b5b5092915050565b7f596f7520646f206e6f74206861766520656e6f75676820446567656e20546f6b60008201527f656e730000000000000000000000000000000000000000000000000000000000602082015250565b600061229c60238361186a565b91506122a782612240565b604082019050919050565b600060208201905081810360008301526122cb8161228f565b9050919050565b7f45524332303a2064656372656173656420616c6c6f77616e63652062656c6f7760008201527f207a65726f000000000000000000000000000000000000000000000000000000602082015250565b600061232e60258361186a565b9150612339826122d2565b604082019050919050565b6000602082019050818103600083015261235d81612321565b9050919050565b7f4f776e61626c653a206e6577206f776e657220697320746865207a65726f206160008201527f6464726573730000000000000000000000000000000000000000000000000000602082015250565b60006123c060268361186a565b91506123cb82612364565b604082019050919050565b600060208201905081810360008301526123ef816123b3565b9050919050565b7f45524332303a20617070726f76652066726f6d20746865207a65726f2061646460008201527f7265737300000000000000000000000000000000000000000000000000000000602082015250565b600061245260248361186a565b915061245d826123f6565b604082019050919050565b6000602082019050818103600083015261248181612445565b9050919050565b7f45524332303a20617070726f766520746f20746865207a65726f20616464726560008201527f7373000000000000000000000000000000000000000000000000000000000000602082015250565b60006124e460228361186a565b91506124ef82612488565b604082019050919050565b60006020820190508181036000830152612513816124d7565b9050919050565b7f45524332303a20696e73756666696369656e7420616c6c6f77616e6365000000600082015250565b6000612550601d8361186a565b915061255b8261251a565b602082019050919050565b6000602082019050818103600083015261257f81612543565b9050919050565b7f45524332303a207472616e736665722066726f6d20746865207a65726f20616460008201527f6472657373000000000000000000000000000000000000000000000000000000602082015250565b60006125e260258361186a565b91506125ed82612586565b604082019050919050565b60006020820190508181036000830152612611816125d5565b9050919050565b7f45524332303a207472616e7366657220746f20746865207a65726f206164647260008201527f6573730000000000000000000000000000000000000000000000000000000000602082015250565b600061267460238361186a565b915061267f82612618565b604082019050919050565b600060208201905081810360008301526126a381612667565b9050919050565b7f45524332303a207472616e7366657220616d6f756e742065786365656473206260008201527f616c616e63650000000000000000000000000000000000000000000000000000602082015250565b600061270660268361186a565b9150612711826126aa565b604082019050919050565b60006020820190508181036000830152612735816126f9565b9050919050565b7f4f776e61626c653a2063616c6c6572206973206e6f7420746865206f776e6572600082015250565b600061277260208361186a565b915061277d8261273c565b602082019050919050565b600060208201905081810360008301526127a181612765565b9050919050565b7f45524332303a206d696e7420746f20746865207a65726f206164647265737300600082015250565b60006127de601f8361186a565b91506127e9826127a8565b602082019050919050565b6000602082019050818103600083015261280d816127d1565b9050919050565b7f45524332303a206275726e2066726f6d20746865207a65726f2061646472657360008201527f7300000000000000000000000000000000000000000000000000000000000000602082015250565b600061287060218361186a565b915061287b82612814565b604082019050919050565b6000602082019050818103600083015261289f81612863565b9050919050565b7f45524332303a206275726e20616d6f756e7420657863656564732062616c616e60008201527f6365000000000000000000000000000000000000000000000000000000000000602082015250565b600061290260228361186a565b915061290d826128a6565b604082019050919050565b60006020820190508181036000830152612931816128f5565b905091905056fea26469706673582212208e362d9939e26268094369ed9c1e67142106f3fa9319f14d396272750e656ae064736f6c63430008120033",
  "linkReferences": {},
  "deployedLinkReferences": {}
}